:020000040800F2
:10000000702800209D010008FF6B0008194E0008B1
:10001000F5680008710F0008397A00080000000038
:1000200000000000000000000000000005010008C2
:10003000C10F00080000000049010008A17300087A
:10004000B7010008B7010008B7010008B7010008B0
:10005000B7010008B7010008B7010008B7010008A0
:10006000B7010008B7010008B7010008B701000890
:10007000B7010008B7010008750F0008850F0008D8
:10008000B7010008B7010008B7010008B701000870
:10009000B7010008B7010008B7010008B701000860
:1000A000B7010008B7010008B7010008B701000850
:1000B00045740008B7010008B7010008B70100083F
:1000C000B7010008414E0008314E0008B701000892
:1000D000B7010008B7010008297A0008B701000835
:1000E000B7010008B7010008B7010008DFF810D019
:1000F00000F0BCFC00480047258E0008AFF30080EC
:1001000070280020224B19680868B0E8F00F80F3CF
:100110000988BFF36F8F4FF0000080F311884EF015
:100120000D0E70470000000006480068006880F36C
:10013000088862B661B6BFF34F8FBFF36F8F00DFE1
:1001400000BF00BF08ED00E0EFF30980BFF36F8F41
:100150000F4B1A6820E9F00F106008B54FF05000FF
:1001600080F31188BFF34F8FBFF36F8F0AF04CFA03
:100170004FF0000080F31188BDE808401968086856
:10018000B0E8F00F80F30988BFF36F8F704700BFAE
:1001900094000020EFF30580704700000648804778
:1001A00006480047FEE7FEE7FEE7FEE7FEE7FEE75C
:1001B000FEE7FEE7FEE7FEE743740008ED000008F7
:1001C000202A04DB203A21FA02F00021704721FAAC
:1001D00002F3D040C2F12002914008431946704713
:1001E00040EA01039B0703D009E008C9121F08C0B9
:1001F000042AFAD203E011F8013B00F8013B521E39
:10020000F9D27047D2B201E000F8012B491EFBD2AF
:1002100070470022F6E710B513460A460446194611
:10022000FFF7F0FF204610BD034611F8012B00F840
:10023000012B002AF9D118467047F0B480EA010278
:10024000D40F4200B2EB410F02D2024608461146DB
:100250004A0042D0C30DDDB2C1F3C752AD1A202D02
:1002600035DAC1F3160141F4000204B15242C5F17E
:10027000200602FA06F12A411044B3EBD05F23D0E6
:10028000C4B1012DA0EBC35009DCF0BC4FF000421B
:1002900002EAC352DBB200F5000000F02CBB4000C4
:1002A00000F1807000EBC350A0F1807040EAD17083
:1002B000490009E0490841EAC071A0EBC35000F5CC
:1002C0000000400800EBC350F0BC00F00BBB6142E3
:1002D000012202EB4101001BF6E7F0BC704781F000
:1002E0000041AAE780F00040A7E780EA010210B5CC
:1002F00002F00043400022D04A001FD0010E01EB63
:100300001261C0F35600C2F3560240F4000042F4FA
:100310000002A0FB022000047F39140400D0401C1E
:1003200050EA124001D44000491EC2B20C0604EB50
:10033000D010401C4008802A02D003E0002010BDED
:1003400020F00100002900DA0020184310BD30B46D
:1003500080EA010202F0004530F0004221F0004046
:1003600013D090B1C30DD40DC2F31601C0F3160023
:10037000E41A41F4000140F400027D34914201D3BB
:10038000641C00E04900002C02DA30BC00207047F9
:100390004FF400000023914201D3891A034340081F
:1003A0004FEA4101F7D151B1914202D14FF00041E2
:1003B00005E002D24FF0010101E06FF0010103EB13
:1003C000C450284430BC00F08DBA2DE9FE4F804661
:1003D00081EA0300C00F0C46009021F0004123F099
:1003E0000045B8EB0200A94105D24046214690469F
:1003F0001C460B46024623F00040104347D0270D11
:10040000C7F30A00C3F30A510290401A0190402832
:100410006BDAC3F3130040F4801B0098924620B1BE
:100420000023D2EB030A63EB0B0B01985946C0F192
:100430004002504600F035FA06460D4650465946F1
:10044000019A00F03DFA10EB08006141002487EAB0
:10045000115284EAE7731A4340D0009A62B3019ABA
:10046000012A4FEA075215DC001B61EB02014FF035
:10047000004202EA0752CDE90042001C41F580111A
:1004800032462B4600F074FA03B0BDE8F08F4046C8
:100490002146F9E7001B61EB0201001C41F58013C6
:1004A00000185B412018A2F5001747EB030140EA52
:1004B000D570B6196D4111E06D084FEA360645EA70
:1004C000C0754FEA0752001B61EB0201001C41F5A9
:1004D000801149084FEA30000019514132462B463D
:1004E00003B0BDE8F04F00F034BA0098012240009C
:1004F0000023D0EB020263EBE073009821464FEA41
:10050000E074B8EB000061EB0401E9E783F000431D
:100510005BE781F0004158E72DE9FE4F81EA0304D3
:1005200004F0004421F0004100944FF0000B23F050
:10053000004350EA01045ED052EA03045BD0C3F3E7
:100540000A54C1F30A552C44A4F2F3340194A0FBDD
:100550000254C1F3130141F48011C3F3130343F4B4
:10056000801301FB024400FB034E840A970A44EA0D
:10057000815447EA8357A4FB076802958D0A05FB5F
:1005800007854FEA932C04FB0C542705029D4FEA84
:10059000065847EA1637B5EB08056EEB070C870ED1
:1005A000920E47EA811742EA8312A7FB0201B6EBDB
:1005B0000B0164EB00042B0D43EA0C335E1844EB93
:1005C0001C50DA465146E7FB0201C5F313044FEA1B
:1005D0000B3343EA14534FEA0432019C43EA060307
:1005E000A4F10C040294009CCDE900B400F0C0F921
:1005F00003B0BDE8F08F00200146F9E72DE9F04D8A
:1006000081EA030404F0004B21F0004514464FF04A
:10061000000A23F0004150EA050220D054EA01020A
:100620001DD0C5F30A570246C5F31303C1F31300E7
:10063000C1F30A5640F4801543F48013A7EB060873
:10064000101BD64608F2FD3873EB050002D308F103
:10065000010801E092185B41B8F1000F03DA0020B5
:100660000146BDE8F08D00204FF480110646844617
:100670000EE0171B73EB050705D3121B63EB050395
:1006800006434CEA010C49084FEA300092185B41DE
:1006900050EA0107EDD152EA030012D082EA0400C9
:1006A00083EA0501084305D0101BAB4106D20122A5
:1006B000002306E000224FF0004302E06FF0010249
:1006C00053101AEB06004CEB085110EB0A0041EBFB
:1006D0000B01BDE8F04D00F03CB9C10F80EAE070BD
:1006E0000844CA079623002100F005B9962300228A
:1006F000114600F000B90EB5C10F80EAE070084461
:10070000CA07002140F233438DE80E000A460B462B
:1007100000F02EF903B000BD0EB540F23341029156
:100720000021CDE900110A460B4600F021F903B083
:1007300000BD00F0004220F00040C10DC0F31600E3
:1007400040F400007F2901DA00207047962903DC7D
:10075000C1F19601C84001E096398840002AF4D0E2
:100760004042704720F00040C10DC0F3160040F435
:1007700000007F2901DA00207047962903DCC1F1CF
:100780009601C840704796398840704700F0004293
:1007900030F000400AD0C10D01F56071C0F31600C1
:1007A00042EA0151C2084007114370470020014648
:1007B000704701F0004330B421F0004150EA0102DB
:1007C00006D00A0DA2F56072C1F31301002A02DC03
:1007D00030BC00207047440F44EAC104C100E01857
:1007E00030BC00EBC25000F07DB80000002801DBF7
:1007F000C0F10040002901DBC1F100418142704796
:10080000002801DBC0F10040002901DBC1F10041FB
:100810008842704730B50B46014600202022012453
:1008200009E021FA02F59D4205D303FA02F5491BBE
:1008300004FA02F52844151EA2F10102F1DC30BDD4
:100840002DE9F05F0546002092469B468846064605
:10085000814640241BE02846414647462246FFF792
:10086000AFFC53465A46C01A914110D31146184660
:10087000224600F016F82D1A67EB01084F46224673
:100880000120002100F00DF817EB00094E41201E59
:10089000A4F10104DFDC484631462A464346BDE860
:1008A000F09F202A04DB203A00FA02F10020704772
:1008B0009140C2F1200320FA03F31943904070479E
:1008C000202A06DBCB17203A41FA02F043EAE07314
:1008D00006E041FA02F3D040C2F120029140084301
:1008E000194670470029A8BF7047401C490008BF3F
:1008F00020F00100704710B4B0FA80FC00FA0CF050
:1009000050EA010404BF10BC704749B1CCF1200487
:1009100021FA04F411FA0CF118BF01212143084314
:10092000A3EB0C01CB1D4FEA00614FEA102042BF40
:10093000002010BC704700EBC35010440029A4BF36
:1009400010BC7047401C490008BF20F0010010BCDB
:10095000704710B5141E73F1000408DA401C41F111
:10096000000192185B411A4301D120F0010010BD33
:100970002DE9F04D92469B4611B1B1FA81F202E0A9
:10098000B0FA80F220329046FFF78BFF04460F4604
:1009900040EA0A0041EA0B0153465A46084313D085
:1009A000114653EA010019D0C8F140025046FFF742
:1009B00007FC05460E46504659464246FFF771FF72
:1009C000084305D0012004E020463946BDE8F08DFB
:1009D0000020054346EAE0762C4337430A98630536
:1009E000E40AA0EB08000022FD0A44EA47540A305A
:1009F00002D500200146E9E7010510196941DDE94A
:100A0000084500196941BDE8F04DA2E7C1F30A525B
:100A1000C1F3130140F2FF3341F480119A4202DA2C
:100A200000200146704740F233439A42A2F233421B
:100A300002DC5242FFF7C4BBFFF733BF30B5041EE0
:100A400071F1000404DB4FF00044404264EB01010B
:100A5000141E73F1000405DB1C464FF000435242A4
:100A600063EB0403994208BF904230BD064C074D2A
:100A700006E0E06840F0010394E80700984710346E
:100A8000AC42F6D3FFF736FB00BF000820BF0008DA
:100A900070B5044600252068806800F00100F0B1C0
:100AA0002068806820F001002168886001F06EFDF8
:100AB00005460EE001F06AFD401B022809D9A06A34
:100AC00040F01000A062E06A40F00100E062012006
:100AD00070BD2068806800F001000028EAD1002085
:100AE000F6E7000038B50446002500200090206895
:100AF000806800F0010080BB2068806840F0010041
:100B000021688860164800681649B0FBF1F0009033
:100B100002E00098401E009000980028F9D101F0F2
:100B200035FD054613E001F031FD401B02280ED9CA
:100B3000A06A40F01000A062E06A40F00100E062AC
:100B400000BF002084F8240000BF012038BD2068C9
:100B5000806800F001000028E5D00020F6E70000E2
:100B60000000002040420F0038B50446202C37D149
:100B70001CA300220521084606F005F81DA300224B
:100B80001221052005F0FFFF1EA300221F210520D2
:100B900005F0F9FF1FA300223321032005F0F3FF26
:100BA000012032237D2219460090022005F06DFFBE
:100BB00001203F23022232210090104605F065FFFC
:100BC00001203F237D2219460090022005F05DFFA1
:100BD00001203F237D2232210090104605F055FF71
:100BE00038BD000056657273696F6E3A56302E300C
:100BF0002E310000417574686F72203A57616E673C
:100C000068000000436F6D70616E793A585858580B
:100C100000000000A1D4A1D4A1D4A1D4A1D4A1D416
:100C2000A1D47C51756974000EB52648264903226B
:100C30000023CDE900210290802224A126480AF059
:100C40004FFA264908600846006810B124A006F053
:100C5000F5FE2B482B4904220023CDE90021029008
:100C6000D20129A12B480AF03BFA2B49086008461B
:100C7000006810B129A006F0E1FE2F482F49052297
:100C80000023CDE90021029080222DA12E480AF0F8
:100C900027FA2E4908602E482E4901220023CDE96B
:100CA0000021029080222CA12E480AF019FA2E4928
:100CB00008601948006810B12CA006F0BFFE09F0CA
:100CC0003FFC0EBD38030020380100204F4C454446
:100CD0005F7363616E000000896E000818000020D9
:100CE0006F6C65645F7363616E5F5461736BC8CED4
:100CF000CEF1B4B4BDA8B3C9B9A6210A0000000062
:100D0000940B0020940300204170705F7363616E48
:100D1000000000008D0D00081C0000204170705F75
:100D20007363616E5F5461736BC8CECEF1B4B4BDB2
:100D3000A8B3C9B9A6210A00F00D0020F00B0020CD
:100D4000494F5F7363616E00A964000820000020B2
:100D50004C1000204C0E0020646174615F7570645B
:100D600061746100D9850008240000206461746109
:100D70005F7570646174615F5461736BC8CECEF14E
:100D8000B4B4BDA8B3C9B9A6210A0000E3E009F0D4
:100D90004BFD09F003F970480078401C6E4908705B
:100DA00008460078502804DD06F0A2F800206A49C1
:100DB000087000F011FD6949C86000F0EDFC684959
:100DC000087008460078A12865D166480078012897
:100DD00003D10220634908705BE062480078022872
:100DE00057D16148007808282DD006DC012809D0A9
:100DF000022811D0042847D118E010282DD020282F
:100E000042D137E0012059490870802056490870C6
:100E10000020544908703BE00220544908708020AB
:100E20005149087000204F49087031E004204F49B3
:100E3000087080204C49087000204A490870FF2043
:100E40004749087024E00820484908708020464936
:100E500008700020434908701AE0102043490870C8
:100E600080204149087000203E490870FF203C491D
:100E700008700DE020203D49087080203A49087034
:100E800000203849087003E000203849087000BF8E
:100E900000BF08F01DFA32480078A2280FD131486F
:100EA000007802280BD1304800784006000E2E4909
:100EB000087008460078402801D1012008702848B1
:100EC0000078A3281CD127480078022808D126489A
:100ED0000078802804D00120224908702249087037
:100EE00021480078802809D1204800781E490870E0
:100EF00000201E49087002201A49087008F0E8F91D
:100F00001848007800F064FA16480178164800780E
:100F100008F0DEF81548007805F074FE13480078F4
:100F2000FFF722FE0E4801781048007806F08AFB91
:100F30000E48007800F0C8F9094801780B4800789D
:100F400000F046F8064801780848007809F0A4FB4C
:100F50000A2009F079FA1AE72C0000200C01002081
:100F600028000020290000202A0000202B0000205B
:100F700000BFFEE710B5024800F0FCFF10BD000006
:100F8000D015002010B5024800F0F4FF10BD00009D
:100F90001416002030B590F840500124AC40C56BC9
:100FA0006C60046863604468102C04D10468A2601B
:100FB0000468E16003E00468A1600468E26030BD99
:100FC0007047014600E0491E0029FCD1704700002F
:100FD00038B505460C46042D7ED1A12C60D19B4826
:100FE000007808282FD006DC01280BD0022814D066
:100FF000042854D11CE0102830D0202839D04028B3
:101000004DD141E09248407AC04391494872084628
:10101000417A682007F068FF41E08E488078C0433D
:101020008C498870084681786E2007F05DFF36E0B5
:101030008748007AC043864908720846017A6B20C7
:1010400007F052FF2BE083480078C04381490870C5
:10105000084601786F2007F047FF20E07C48C07900
:10106000C0437B49C8710846C1796A2007F03CFF3C
:1010700015E078484078C043764948700846817842
:101080006E2007F031FF0AE071488079C043704953
:10109000887108468179152007F026FF00BF00BF40
:1010A000A22C0BD1694800784006000E67490870F1
:1010B00008460078802801D101200870A32C02D1B5
:1010C0000120624908706248407A58B15F48007850
:1010D00000F0010260A300E0B7E000210A2005F063
:1010E00052FD08E05948007800F001025CA300219D
:1010F0000A2005F048FD5648007A48B15348007868
:1011000000F0040258A30D210A2005F03CFD08E080
:101110004E48007800F0040255A30D210A2005F086
:1011200032FD4B48C07948B14848007800F01002C1
:1011300051A319210A2005F026FD08E04348007854
:1011400000F010024EA319210A2005F01CFD4048B2
:10115000807948B13D48007800F040024AA325213B
:101160000A2005F010FD08E03848007800F0400241
:1011700047A325210A2005F006FD3648807848B1AE
:101180003248007800F0020243A300213F2005F01E
:10119000FAFC08E02D48007800F0020241A300218B
:1011A0003F2005F0F0FC2B48007848B12748007834
:1011B00000F0080238A30D213F2005F0E4FC08E010
:1011C0002248007800F0080236A30D213F2005F0E8
:1011D000DAFC2048407848B11C48007800F0200232
:1011E0002DA319213F2005F0CEFC08E01748007818
:1011F00000F020022BA319213F2005F0C4FC2CA3F2
:1012000000223321032005F0BEFC012032237D2281
:1012100019460090022005F038FC01203F230222ED
:1012200032210090104605F030FC01203F237D2242
:1012300019460090022005F028FC01203F237D2262
:1012400032210090104605F020FC38BD58000020E7
:101250001C01002010000020494F303A4F4E200062
:10126000494F303A4F464600494F313A304E200000
:10127000494F313A4F464600494F323A4F4E2000CF
:10128000494F323A4F464600494F333A4F4E2000BD
:10129000494F333A4F4646004D4F44453A41555425
:1012A0004F0000004D4F44453A4F5045520000005A
:1012B0004F4B7CA1D4A1D45BA1FD5DA1D4A1D47C72
:1012C000517569740000000010B586B00446082C02
:1012D00059D1142101A807F0D1F8142101A807F071
:1012E000CDF82A4802792AA101A806F0B7FB01AB84
:1012F00000220421062005F046FC142101A807F075
:10130000BDF82248427925A101A806F0A7FB01AB50
:1013100000221021062005F036FC142101A807F058
:10132000ADF81A4820A1026801A806F097FB01ABAE
:1013300000221D21062005F026FC1EA300223321D9
:10134000032005F020FC012032237D221946009065
:10135000022005F09AFB01203F2302223221009057
:10136000104605F092FB01203F237D221946009094
:10137000022005F08AFB01203F237D2232210090CC
:10138000104605F082FB06B010BD00001C010020D5
:1013900054207365743A256420200000482073654A
:1013A000743A2564202000004C207365743A25644B
:1013B00020200000A1D4A1D4A1D4A1D4A1D4A1D42F
:1013C000A1D47C517569740072B600BFFEE70000BD
:1013D000F0B589B00446012C7ED100227C497D48BD
:1013E00002F069FE00227C497A4802F03BFE07F0D9
:1013F0003BFE072836D2DFE800F0040B1219202745
:101400002E0076A300221146022005F0BCFB30E03E
:1014100077A300221146022005F0B5FB29E079A34D
:1014200000221146022005F0AEFB22E07AA3002242
:101430001146022005F0A7FB1BE07CA30022114609
:10144000022005F0A0FB14E07DA30022114602203B
:1014500005F099FB0DE07FA300221146022005F064
:1014600092FB06E081A300221146022005F08BFBCF
:1014700000BF00BF142104A807F000F88049886865
:10148000FFF784F905462A460B467EA104A806F01C
:10149000E5FA04AB00220D21032005F074FB1421B2
:1014A00004A806F0EBFF76494868FFF76FF9054698
:1014B0002A460B4677A104A806F0D0FA04AB002216
:1014C0000D21462005F05FFB142104A806F0D6FF8D
:1014D0006B490868734900E077E0FFF787F90BD2A2
:1014E00067490868FFF752F905462A460B466EA180
:1014F00004A806F0B3FA0EE0614908686949FEF7EE
:1015000026FF0746FFF742F905462A460B466AA121
:1015100004A806F0A3FA04AB00221B21032005F067
:1015200032FB142104A806F0A9FF5548C068B92869
:1015300005DA002264A104A806F090FA05E05048FC
:1015400061A1C26804A806F089FA04AB00221B213D
:10155000462005F018FB142104A806F08FFF1E4852
:1015600080781D4949781A4A9278CDE90021029085
:1015700017484378027857A104A806F06FFA0120B3
:1015800032237D2219460090032005F07EFA0120C7
:101590000C237D2219460090032005F076FA04AB57
:1015A00000223321032005F0EEFA01203F2302221E
:1015B00032210090104605F068FA01203F237D2279
:1015C00019460090022005F060FA09B0F0BD000055
:1015D00049000020E81600204C0000205769666989
:1015E0003A536D617274204D6F64652020000000D5
:1015F000576966693A4150204D6F6465202020206C
:1016000020000000526F7574657220436F6E6E6526
:101610006374696E67000000526F757465722043D1
:101620006F6E6E656374656420000000434F4E4E1C
:1016300020436C6F756420202020202020000000B3
:101640004C6F7720506F776572202020202020205B
:1016500020000000536D61727420616E642041505F
:10166000207374617465202000000000556E6B6E5D
:101670006F77202020202020202020202000000024
:101680000C010020CEC220B6C83A252E3066A1E655
:1016900020202000CAAA20B6C83A252E306625256B
:1016A0002020000000007A44B9E220C7BF3A252E6E
:1016B00030664C7820200000B9E220C7BF3A252EC2
:1016C00031666B4C20200000D1CC20CEED3A256451
:1016D00020202000B2CB20B5A57C253032643A25ED
:1016E0003032643A253032647C25642F2564202012
:1016F0000000000030B50246A2F1200083B2602B4A
:1017000008DD002003E000240C54441CA0B20C2887
:10171000F9DB0CE0002008E003EB4304054D05EB8A
:101720008404245C0C54441CA0B20C28F4DB00207C
:1017300030BD00005CB60008F0B595B005460E4619
:1017400014465022124901A8FEF74AFD46EA052038
:1017500001A907F077FA0746272F08DD002003E0EC
:1017600001212154411C88B21828F9DB0CE000202B
:1017700008E007EB4701074A02EBC101095C21546D
:10178000411C88B21828F4DB002015B0F0BD000021
:1017900084BE0008DCBA0008FF20002112E00B4ADA
:1017A000525C0B4B5B5C9A4206D0084A525C12B109
:1017B000084A505C00E0FF20054A525C034B5A5433
:1017C0004A1CD1B20329EADB704700007E000020EA
:1017D000750000207800002070B508F0BBFB0446BF
:1017E00003492046FEF781FD0546FEF7A2FF70BDC6
:1017F0000000C842F8B5044600260020009000BF53
:1018000094F82400012801D10220F8BD012084F8B9
:10181000240000BF2046FFF73BF90646002E62D1A8
:10182000A06A20F4885040F00200A062022001F07B
:101830008DFF30490968B1FBF0F04000009002E0F4
:101840000098401E009000980028F9D12046FFF72C
:1018500049F92068806840F008002168886000F03D
:1018600095FE054611E000F091FE401B0A280CD9B8
:10187000A06A20F0020040F01000A06200BF00202B
:1018800084F8240000BF0120BFE72068806800F0D2
:1018900008000028E7D12068806840F00400216833
:1018A000886000F073FE054611E000F06FFE401BFB
:1018B0000A280CD9A06A20F0020040F01000A062B3
:1018C00000BF002084F8240000BF01209DE72068AD
:1018D000806800F004000028E7D1A06A20F0020030
:1018E00040F00100A06200BF002084F8240000BF87
:1018F00030468AE70000002038B502460023002069
:10190000009000BF92F82400012801D1022038BDC8
:10191000012082F8240000BF4868072812D210680E
:10192000406B0C79641E04EB84051F24AC40A0437B
:101930000D796D1E05EB85050C68AC4020431468DD
:10194000606327E048680D2812D21068006B0C799C
:10195000E41F04EB84051F24AC40A0430D79ED1F68
:1019600005EB85050C68AC4020431468206311E04A
:101970001068C06A0C790D3C04EB84051F24AC4050
:10198000A0430D790D3D05EB85050C68AC40204367
:101990001468E06208680A2812D31068C0680C78DE
:1019A0000A3C04EB44050724AC40A0430D780A3DF3
:1019B00005EB45058C68AC4020431468E0600FE0FF
:1019C000106800690C7804EB44050724AC40A04380
:1019D0000D7805EB45058C68AC4020431468206108
:1019E0000868102802D00868112827D1174C106801
:1019F000A0421ED11068806800F40000F0B91068A1
:101A0000806840F400001468A0600868102815D1B0
:101A10000F4800680F4CB0FBF4F000EB8000400072
:101A2000009002E00098401E009000980028F9D134
:101A300004E0906A40F020009062012300BF002083
:101A400082F8240000BF184661E70000002401402E
:101A50000000002040420F000146886A704701469E
:101A60000868C06C704700002DE9F041044600276B
:101A700000250026A84614B90120BDE8F081A06821
:101A800010B1207D00B100BFA06A30B90020E06233
:101A900084F82400204600F089F82046FEF7F8FF7D
:101AA0000746A06A00F01000002873D1002F71D102
:101AB000A06A20F4885040F00200A062E1696068EA
:101AC0000843217B40EA41000643A068B0F5807FCF
:101AD00002D0A068012802D14FF4807000E00020FD
:101AE0000543207D012811D1207B38B9A069401E13
:101AF0004FF4006141EA4030054307E0A06A40F03E
:101B00002000A062E06A40F00100E06220684068C6
:101B100020F4694028432168486020688068214992
:101B20000840304321688860A068B0F5807F02D00B
:101B3000A068012802D14FF4807000E00020B0F5C9
:101B4000807F03D1208A401E4FEA00582068C06A77
:101B500020F4700040EA08002168C86220688068AC
:101B600011490840B04208D10020E062A06A20F08C
:101B7000020040F00100A06211E0A06A20F0020023
:101B800040F01000A062E06A40F00100E06201272E
:101B900005E0FFE7A06A40F01000A0620127384688
:101BA0006BE70000FDF7E1FFFE0E1FFF10B586B0EA
:101BB0000446002002900390049005901449206888
:101BC000884222D100BF1348806940F40070114957
:101BD00088610846806900F40070019000BF00BF72
:101BE00000BF0846806940F00400886108468069AB
:101BF00000F00400019000BF00BF0220029003200B
:101C0000039002A9044800F019FB06B010BD0000C3
:101C1000002401400010024000080140F8B50446CD
:101C20000D46002600200090002700F0AFFC06467D
:101C30002068806800F4807050B1A06A40F02000F5
:101C4000A06200BF002084F8240000BF0120F8BD7E
:101C50002068406800F48070F8B92068C06A00F419
:101C60007000D0B912E0681C80B125B100F08EFC84
:101C7000801BA8420AD9A06A40F00400A06200BFFD
:101C8000002084F8240000BF0320E0E720680068FB
:101C900000F002000028E6D050E0022001F056FDDE
:101CA00036490968B1FBF0F021680969344A1140EE
:101CB00091B92168C9689211114069B9216809690F
:101CC000304A114031B92168C9689211114009B9EF
:101CD000142117E0292115E021680969294A1140DA
:101CE00021B92168C9689211114041B1216809697F
:101CF000254A114029B92168C968114009B9542100
:101D000000E0FC2100FB01F715E0681C80B125B163
:101D100000F03CFC801BA8420AD9A06A40F00400F5
:101D2000A06200BF002084F8240000BF03208EE7DB
:101D30000098401C00900098B842E6D36FF0120063
:101D400021680860A06A40F40070A0622068806882
:101D500000F46020B0F5602F0DD1207B58B9A06A47
:101D600020F48070A062A06A00F4805018B9A06AC4
:101D700040F00100A062002069E7000000000020A0
:101D800024499224922449124992240070B50446B1
:101D9000002500BF94F82400012801D1022070BD65
:101DA000012084F8240000BF2046FEF79BFE054674
:101DB000002D77D1A06A40F20121884340F4807061
:101DC000A0623C492068884208D13B48006800F482
:101DD000702008B9012002E0002000E0012078B165
:101DE000A06A20F48010A0622068406800F480603F
:101DF00000B3A06A20F4005040F48050A06219E0C3
:101E0000A06A40F48010A0622B49091F2068884214
:101E100003D028492068884204D12748006800F48C
:101E2000806000E0002028B1A06A20F4005040F457
:101E30008050A062A06A00F4805020B1E06A20F0D7
:101E40000600E06201E00020E06200BF002084F8AC
:101E5000240000BFC01E216808602068806800F46C
:101E60006020B0F5602F16D112492068884208D151
:101E70001148006800F4702008B9012002E0002039
:101E800000E0012038B12068806840F4A00021689B
:101E900088600CE006E02068806840F480102168CB
:101EA000886004E000BF002084F8240000BF2846BA
:101EB00075E70000002801400424014070B5044685
:101EC000002594F82100022803D00420A0630125F6
:101ED00048E02068006820F00E0021680860206853
:101EE000006820F00100216808601F4920688842CE
:101EF00001D1012026E01C4914312068884201D11B
:101F000010201FE0184928312068884201D180152F
:101F100018E015493C312068884201D1801411E055
:101F2000114950312068884202D14FF4803009E0D5
:101F30000D4964312068884202D14FF4801001E0DD
:101F40004FF08070084908394860012084F821006A
:101F500000BF002084F8200000BF606B10B1204655
:101F6000616B8847284670BD08000240014691F821
:101F70002100704770B50446E06B0568206806686C
:101F800094F84010042088402840002846D006F0ED
:101F90000400002842D02068006800F0200028B922
:101FA0002068006820F00400216808605749206814
:101FB000884201D1042027E0544914312068884226
:101FC00001D1402020E0514928312068884201D1C8
:101FD000001519E04D493C312068884202D14FF488
:101FE000804011E0494950312068884202D14FF4C5
:101FF000802009E0454964312068884202D14FF4CD
:10200000800001E04FF08060404908394860E06A94
:1020100000287AD02046E16A884776E094F840109C
:10202000022088402840A0B306F0020088B3206850
:10203000006800F0200040B92068006820F00A0025
:1020400021680860012084F8210030492068884216
:1020500001D1022028E02D4914312068884201D1A5
:10206000202021E0294928312068884201D14015EB
:102070001AE026493C312068884202D14FF40050D2
:1020800012E0224950312068884203D14FF40030D9
:102090000AE017E01D4964312068884202D14FF4FC
:1020A000001001E04FF0007018490839486000BF87
:1020B000002084F8200000BFA06A30B32046A16A47
:1020C000884722E094F84010082088402840E0B17A
:1020D00006F00800C8B12068006820F00E002168F2
:1020E000086094F8401001208840E16B48600120AE
:1020F000A06384F8210000BF002084F8200000BF06
:10210000206B10B12046216B884770BD080002404B
:102110000146002209B901207047164B0868C01A11
:102120001423B0FBF3F08000086412480838C86339
:10213000022081F821000868026843F6F0708243AB
:10214000D1E901031843CB6818430B6918434B6965
:1021500018438B691843CB6918430243086802602F
:1021600000208863012081F82100002081F82000F0
:1021700000BFD1E7080002402DE9F04104460D46BA
:1021800016461F464FF0000800BF94F820000128B3
:1021900002D10220BDE8F081012084F8200000BFB8
:1021A00094F8210001282CD1022084F8210000207D
:1021B000A0632068006820F00100216808603B46A9
:1021C000324629462046FEF7E5FEE06A30B1206837
:1021D000006840F00E00216808600BE0206800688D
:1021E00020F00400216808602068006840F00A00C0
:1021F000216808602068006840F0010021680860DC
:1022000006E000BF002084F8200000BF4FF0020865
:102210004046BFE770B5044600F0B8F906462546CB
:10222000681C10B104480078054400BF00F0AEF906
:10223000801BA842FAD370BD0C0000202DE9F8479E
:102240000346002294466EE14FF0010808FA02F4BA
:10225000D1F8008008EA0400A0427DD1DFF8DCA2BA
:10226000D1F80480A8EB0A09D0453AD014DCB8F1C3
:10227000030F50D009DCB8F1000F31D0B8F1010FD5
:102280001CD0B8F1020F49D120E0B8F1110F18D0DD
:10229000B8F1120F42D11EE0B9F5881F25D006DC37
:1022A000B9F5803F20D0B9F5801F37D11AE0B9F5D4
:1022B000001F18D0B9F5041F30D117E0D1F80CC0B9
:1022C0002DE0D1F80C8008F1040C28E0D1F80C8046
:1022D00008F1080C23E0D1F80C8008F10C0C1EE08A
:1022E00000BF00BF00BF00BF00BF00BFD1F8088023
:1022F000B8F1000F02D14FF0040C0BE0D1F80880C8
:10230000B8F1010F03D14FF0080C1C6102E04FF04F
:10231000080C5C6103E04FF0000C00E000BF00BF60
:10232000FF2801D8984601E003F104084646FF283B
:1023300002D84FEA820803E0A2F108084FEA8808B1
:102340004746D6F800804FF00F0909FA07F928EA46
:1023500009080CFA07F900E088E048EA0908C6F81D
:102360000080D1F8048008F08058B8F1805F7DD1FA
:1023700000BFDFF8CC81D8F8188048F00108DFF8FA
:10238000C091C9F81880C846D8F8188008F001082C
:10239000CDF8008000BF00BF4FEAB9384FEA92097C
:1023A00058F829504FEA82784FEA18794FF00F0811
:1023B00008FA09F825EA0805DFF88881434502D1C3
:1023C0004FF0000816E0DFF88081434502D14FF05E
:1023D00001080FE0DFF87481434502D14FF0020895
:1023E00008E0DFF86C81434502D14FF0030801E0BB
:1023F0004FF004084FEA82794FEA197908FA09F890
:1024000048EA0505DFF84C814FEA920948F829505F
:10241000D1F8048008F48038B8F5803F0AD1DFF89D
:102420003881D8F8008048EA0008DFF82C91C9F814
:10243000008009E0DFF82081D8F8008028EA000851
:10244000DFF81491C9F80080D1F8048008F400384E
:10245000B8F5003F10D1DFF8008108F10408D8F882
:10246000008048EA0008DFF8F09000E05AE009F147
:102470000409C9F800800DE0DFF8DC8008F10408E9
:10248000D8F8008028EA0008DFF8CC9009F10409A8
:10249000C9F80080D1F8048008F48018B8F5801FCE
:1024A0000ED1DFF8B48008F10808D8F8008048EAB7
:1024B0000008DFF8A49009F10809C9F800800DE0D0
:1024C000DFF8948008F10808D8F8008028EA0008AE
:1024D000DFF8849009F10809C9F80080D1F8048078
:1024E00008F40018B8F5001F0ED1DFF86C8008F171
:1024F0000C08D8F8008048EA0008DFF85C9009F181
:102500000C09C9F800800DE0DFF84C8008F10C08D8
:10251000D8F8008028EA0008DFF83C9009F10C099F
:10252000C9F80080521CD1F8008028FA02F8B8F1EE
:10253000000F7FF489AEBDE8F8870000000011109D
:102540000010024000080140000C01400010014052
:102550000014014008000140000401400246936855
:102560000B400BB1012000E00020704710B5C2689D
:1025700021EA020302EA010443EA0443036110BDB5
:102580000AB1016101E00B04036170470148006872
:102590007047000004000020704770472DE9F84F95
:1025A0000446206847692068D0F80480002594F824
:1025B0003E90C7F3002070B1C8F3002058B145F039
:1025C00001056FF48070216848612068006840F45C
:1025D000004021680860C7F3402040B1C8F30020E4
:1025E00028B145F002056FF4007021684861C7F317
:1025F000802070B3C8F3002058B3CA46B4F82AB09C
:1026000094F83D60206B0090BAF1200F0FD1BBF120
:10261000000F0CD1212E06D0292E04D0282E06D151
:102620000098212803D1204603F082FC11E06FF4CA
:1026300080602168486145F00405B9F1100F02D0AF
:10264000B9F1400F05D12068006840F4007021689E
:102650000860C7F3C02040B1C8F3002028B145F09E
:1026600008056FF40060216848612DB1206C284393
:102670002064204602F09CFDBDE8F88F2DE9F0476C
:1026800005464FF0000828684668D5F82C9095F864
:102690003E7095F83DA0102F01D0402F7FD12868C3
:1026A000D0F818802868446904F0010060B9B9F5D1
:1026B0002A0F02D0B9F12A4F01D1012000E00020F9
:1026C000012801D1BDE8F08704F0010048B1C6F34C
:1026D000402030B1284602F0BBFB284603F0C8F981
:1026E000B4E0C4F3C00030B1C6F3402018B12846AE
:1026F00003F069F8AAE0C4F3400030B1C6F340200B
:1027000018B1284603F074F8A0E0C8F3800028B39D
:102710002868406800F40060B0F5006FE0D0C4F3B2
:10272000C01048B1C6F3802030B1C4F3800018B99E
:10273000284602F0DCFF89E0C4F380000028CFD0F7
:10274000C6F340200028CBD0102F03D1284602F03A
:1027500089FF7BE0284603F0DAF977E028684068D3
:1027600000F40060B0F5006F70D0C4F3801050B179
:10277000C6F3802038B1C4F3800020B9284602F0A7
:102780009FFE63E00BE0C4F3800000285ED0C6F338
:10279000402000285AD0284602F0FFFD56E0286C61
:1027A00010B12868446904E02868D0F818802868C7
:1027B0004469C4F3400060B1C6F3402048B1286CBE
:1027C00010B12868D0F818804146284603F07CFBF9
:1027D0003CE0C4F3001030B1C6F3402018B12846E5
:1027E00003F0F6FB32E0BAF1210F02D0BAF1290F63
:1027F00016D1C4F3C01048B1C6F3802030B1C4F381
:10280000800018B9284603F03CFB1FE0C4F38000A9
:10281000E0B1C6F34020C8B1284603F025FB15E01F
:10282000C4F3801048B1C6F3802030B1C4F38000F7
:1028300018B9284603F0F5FA08E0C4F3800028B17F
:10284000C6F3402010B1284603F0DEFA00BF39E796
:102850007047014691F83D007047000070B504468E
:102860000CB9012070BD94F83D0028B9002084F80F
:102870003C00204600F0D4FD242084F83D00206870
:10288000006820F00100216808602068006840F4BA
:102890000040216808602068006820F4004021683A
:1028A000086001F043F905465C496068884206D833
:1028B0005B48854201D2012007E0002005E059482D
:1028C000854201D2012000E00020012800D1C9E7A3
:1028D0005548B5FBF0F62068406820F03F003043D3
:1028E000216848604D496068884201D8701C07E043
:1028F0004FF4967070434FF47A71B0FBF1F0401CC6
:102900002168096A21F03F010843216808624349B0
:102910006068884214D8681E61684900B0FBF1F015
:10292000401CC0F30B00042801D204203DE0681EC7
:1029300061684900B0FBF1F0401CC0F30B0034E0CB
:10294000A06838B9681E616801EB4101B0FBF1F085
:10295000401C0AE0681E616801EBC10202EB011134
:10296000B0FBF1F0401C40F48040C0F30B0008B90C
:1029700001201AE0A06848B9681E616801EB4101B6
:10298000B0FBF1F0401CC0F30B000CE0681E616866
:1029900001EBC10202EB0111B0FBF1F0401CC0F3EE
:1029A0000B0040F4804040F400402168C9694CF6B7
:1029B000FF72914308432168C861D4E907010843C5
:1029C0002168096821F0C001084321680860D4E942
:1029D000031008432168896848F2FF329143084395
:1029E00021688860D4E9050108432168C96821F09D
:1029F000FF0108432168C8602068006840F00100BA
:102A00002168086000202064202084F83D00002018
:102A1000206384F83E0000BF24E70000A086010088
:102A200080841E0000093D0040420F002DE9F84F50
:102A300004460F4690461E46FFF7A8FD05464FF098
:102A4000010994F83D0020287ED119230122634911
:102A50002046009503F0B0FB10B10220BDE8F88FCE
:102A600000BF94F83C00012801D10220F6E70120C4
:102A700084F83C0000BF2068006800F0010028B91D
:102A80002068006840F00100216808602068006844
:102A900020F4006021680860242084F83D000020B4
:102AA00020644F48E06200BF2068006840F48070F6
:102AB00021680860334600224FF00111204600953E
:102AC00003F07AFB58B12068006800F48070B0F51C
:102AD000807F02D14FF4007020640320BEE707F02E
:102AE000FE0021680861FFF751FD05462068406936
:102AF000C0F3400A20684069C0F3802B10E0FFF764
:102B000045FD401BB04200D816B9A02084F83D0016
:102B100020684069C0F3400A20684069C0F3802BF8
:102B200094F83D00A02805D0BAF1000F02D1BBF106
:102B3000000FE4D0202084F83D0020684069C0F3F5
:102B4000400028B3206800E045E0006840F40070D1
:102B50002168086000BF0020009020684069009054
:102B600020688069009000BF00BF192301221B4923
:102B70002046009503F020FB08B101206EE72020DD
:102B800084F83D0000BF002084F83C0000BF65E7EA
:102B90002068006840F40070216808606FF480606D
:102BA00021684861192301220C492046009503F051
:102BB00003FB08B1012051E709F10109C145FFF408
:102BC00073AF202084F83D0000BF002084F83C0053
:102BD00000BF012042E7022040E700000200100091
:102BE0000000FFFF70477047704700002DE9F84371
:102BF0000446894616461F46DDF82080FFF7C6FCCE
:102C0000054694F83D0020287ED119230122514920
:102C10002046009503F0D0FA10B10220BDE8F883F9
:102C200000BF94F83C00012801D10220F6E7012002
:102C300084F83C0000BF2068006800F0010028B95B
:102C40002068006840F00100216808602068006882
:102C500020F4006021680860212084F83D001020E5
:102C600084F83E000020206466626785608D2085C0
:102C70003948E0622B4642464946204602F092FC23
:102C800008B10120CAE700BF002000902068406919
:102C9000009020688069009000BF00BF44E02A4691
:102CA0004146204603F096FB50B1206C042805D124
:102CB0002068006840F40070216808600120ADE7DA
:102CC000606A007821680861606A401C6062608DFB
:102CD000401E6085208D401E208520684069C0F31D
:102CE000800070B1208D60B1606A00782168086151
:102CF000606A401C6062608D401E6085208D401EB1
:102D000020852A46414600E022E0204603F026FACC
:102D100050B1206C042805D12068006840F4007090
:102D200021680860012079E7208D0028B7D120684C
:102D3000006840F4007021680860202084F83D009D
:102D4000002084F83E0000BF84F83C0000BF65E727
:102D5000022063E7020010000000FFFF7047000040
:102D60000121014A11707047590000202DE9FE4FE2
:102D700004460F4690469946DDE90CAB0E9E0020B6
:102D80000290FFF703FC054694F83D00202872D11D
:102D900019230122CA492046009503F00DFA10B10B
:102DA0000220BDE8FE8F00BF94F83C00012801D14D
:102DB0000220F6E7012084F83C0000BF206800688C
:102DC00000F0010028B92068006840F00100216887
:102DD00008602068006820F40060216808602220F4
:102DE00084F83D00402084F83E0000202064C4F8B0
:102DF00024A0A4F82AB0608D2085B248E0624B463A
:102E0000424639462046CDE9006502F0DDFE08B1B4
:102E10000120C6E7208D88B900BF002001902068FE
:102E20004069019020688069019000BF00BF206860
:102E3000006840F40070216808604BE0208D012894
:102E40001AD12068006820F480602168086072B69A
:102E500000BF0020019020684069019020688069CF
:102E6000019000BF00BF2068006840F40070216836
:102E7000086062B62EE020E1208D022819D120687A
:102E8000006840F400602168086072B600BF00204E
:102E9000019020684069019020688069019000BF1E
:102EA00000BF2068006820F480602168086062B676
:102EB00010E02068006840F480602168086000BF6E
:102EC000002001902068406901902068806901908D
:102ED00000BF00BFE2E0208D03287DD8208D0128AF
:102EE00015D12A463146204603F00BFA08B10120DD
:102EF00057E720680069616A0870606A401C606278
:102F0000208D401E2085608D401E6085C6E0208D8E
:102F100002282CD1334600226B492046009503F04D
:102F20004BF908B101203CE772B62068006840F414
:102F300000702168086020680069616A0870606A32
:102F4000401C6062208D401E2085608D401E608583
:102F500062B620680069616A0870606A401C60623D
:102F6000208D401E2085608D401E608596E0334692
:102F7000002255492046009503F01EF908B10120B2
:102F80000FE72068006820F480602168086072B64E
:102F900020680069616A0870606A401C6062208D68
:102FA000401E2085608D401E6085484800681921BC
:102FB000B0FBF1F04FF47A71B0FBF1F0C0EBC00060
:102FC00000EB8000029000BF0298401E0290029821
:102FD000A8B90020206300E039E0202084F83D00FB
:102FE000002084F83E00206C40F02000206462B68F
:102FF00000BF002084F83C0000BF0120D1E620681B
:103000004069C0F380000028DED02068006840F4EA
:1030100000702168086020680069616A0870606A51
:10302000401C6062208D401E2085608D401E6085A2
:1030300062B620680069616A0870606A401C60625C
:10304000208D401E2085608D401E608526E02A462A
:103050003146204603F055F908B10120A1E6206869
:103060000069616A0870606A401C6062208D401EC1
:103070002085608D401E608520684069C0F3800017
:1030800060B120680069616A0870606A401C606213
:10309000208D401E2085608D401E6085208D00287B
:1030A0007FF419AF202084F83D00002084F83E0012
:1030B00000BF84F83C0000BF73E6022071E6000008
:1030C000020010000000FFFF0400010000000020CB
:1030D0002DE9FC5F04460F4690469946DDE90CABAE
:1030E0000E9EFFF753FA054694F83D0020287DD147
:1030F000192301224D492046009503F05DF810B1D7
:103100000220BDE8FC9F00BF94F83C00012801D1DB
:103110000220F6E7012084F83C0000BF2068006828
:1031200000F0010028B92068006840F00100216823
:1031300008602068006820F4006021680860212091
:1031400084F83D00402084F83E0000202064C4F84C
:1031500024A0A4F82AB0608D20853548E0624B4653
:10316000424639462046CDE9006502F0DDFD08B152
:103170000120C6E731E02A463146204603F02AF90D
:1031800050B1206C042805D12068006840F400701C
:10319000216808600120B4E7606A0078216808614E
:1031A000606A401C6062208D401E2085608D401E3C
:1031B000608520684069C0F3800070B1208D60B1E7
:1031C000606A007821680861606A401C6062208D36
:1031D000401E2085608D401E6085208D0028CAD14C
:1031E0002A463146204602F0B9FF00E01CE050B10B
:1031F000206C042805D12068006840F40070216824
:10320000086001207DE72068006840F400702168B4
:103210000860202084F83D00002084F83E0000BFB4
:1032200084F83C0000BF6CE702206AE7020010004F
:103230000000FFFF2DE9FE4F04460E4617469B4651
:10324000DDE90C8900200290FFF7A0F9824694F88E
:103250003D0020287ED16E4800681921B0FBF1F0B6
:103260004FF47A71B0FBF1F000EBC00101EB0010FC
:10327000029000BF0298401E0290029898B9002068
:103280002063202084F83D00002084F83E00206C5C
:1032900040F02000206400BF002084F83C0000BF04
:1032A0000120BDE8FE8F20688069C0F3400000283F
:1032B000E0D100BF94F83C00012801D10220F0E7E2
:1032C000012084F83C0000BF2068006800F0010085
:1032D00028B92068006840F0010021680860206873
:1032E000006820F4006021680860212084F83D0017
:1032F000402084F83E0000202064C4F82480A4F814
:103300002A90608D20854348E062208D00286BD094
:103310004148616B88624148616B08630020616BC2
:10332000C862616B4863238DD4F800C00CF11002B1
:10333000616A606BFEF720FF0546002D43D1232014
:103340005B463A463146CDE9000A204602F0ECFCE5
:10335000D8B100E059E0606BFEF7B0FD0546606B48
:1033600010B10020616B88622068006820F48060E2
:10337000216808600020208560852068006820F0B2
:1033800001002168086001208BE700BF0020019048
:1033900020684069019020688069019000BF00BFEB
:1033A00000BF002084F83C0000BF2068406840F463
:1033B0008070216848602068406840F4006021689F
:1033C000486000206DE7202084F83D00002084F84C
:1033D0003E00206C40F01000206400BF002084F804
:1033E0003C0000BF01205CE7202084F83D00002065
:1033F00084F83E00206C40F04000206400BF0020B4
:1034000084F83C0000BF01204BE7022049E70000A0
:10341000000000200000FFFFAB4F0008654F0008D0
:1034200010B586B0044600200290039004900590E9
:103430005149206888422FD100BF5048806940F030
:1034400008004E4988610846806900F00800019034
:1034500000BF00BF4FF44070029012200390032081
:10346000059002A94648FEF7E9FE00BF45494868B5
:1034700040F0E06040F00200486000BF00BF3F48FD
:10348000C06940F400103D49C8610846C06900F4B5
:103490000010019000BF6DE03B492068884269D16F
:1034A00000BF3648806940F008003449886108460A
:1034B000806900F00800019000BF00BF4FF4406039
:1034C0000290122003900320059002A92C48FEF7D9
:1034D000B5FE00BF2948C06940F480002749C86193
:1034E0000846C06900F48000019000BF00BF274873
:1034F000274908601020486000212548816080210C
:10350000C1600021016141618161C161FEF700FE7E
:1035100008B1FDF759FF00BF1D486063446200BF5A
:103520001A4814301B4908600020486000211948DF
:1035300081608021C1600021016141618161C161BF
:10354000FEF7E6FD08B1FDF73FFF00BF1148A0639D
:10355000446200BF00221146212000F09FF8212084
:1035600000F08CF800221146222000F097F822206B
:1035700000F084F806B010BD005400400010024076
:10358000000C01400000014000580040440002408F
:10359000D0150020141600207047704703480068BB
:1035A0000349097808440149086070470400002075
:1035B0000C00002010B50848006840F010000649D3
:1035C0000860032000F0A8F8002000F007F800F0E1
:1035D0002BF8002010BD00000020024070B504460A
:1035E0000E4800784FF47A71B1FBF0F00C4909688D
:1035F000B1FBF0F5284600F073FF08B1012070BD63
:10360000102C07D200222146501E00F047F8054832
:10361000046001E00120F2E70020F0E70C00002048
:10362000000000200800002008B500BF1148806994
:1036300040F001000F4988610846806900F00100F0
:10364000009000BF00BF00BF0846C06940F0805036
:10365000C8610846C06900F08050009000BF00BFFC
:1036600000BF0549486820F0E06040F00070486005
:1036700000BF08BD0010024000000140014608469E
:10368000002809DB00F01F0301229A4043099B0038
:1036900003F1E023C3F8002100BF70472DE9F05F7C
:1036A00080460D461646002704F0ECF907463946D9
:1036B0002A46334601F00700C0F1070ABAF1040FA9
:1036C00002D94FF0040A01E0C0F1070AD14600F127
:1036D000040ABAF1070F02D24FF0000A01E0A0F18C
:1036E000030AD4464FF0010A0AFA09FAAAF1010ABC
:1036F0000AEA020A0AFA0CFA4FF0010B0BFA0CFB69
:10370000ABF1010B0BEA030B4AEA0B0421464046DE
:1037100004F0C0F9BDE8F09F00BF00F00702064BBF
:1037200019684FF6FF031940044B0B4343EA02218B
:10373000014B196000BF70470CED00E00000FA0576
:10374000012001490862704700000E422DE9F04354
:1037500085B006463BA30FCB01AC0FC43DA000686B
:1037600000904FF00008002500270024A146012EFC
:1037700030D0022E55D0102E5ED1374844680068F4
:1037800000F0807000B301A8C4F38341475C04F4E7
:10379000803070B130484068C0F340401DF8008070
:1037A00004F4803040B12D48B0FBF8F000FB07F581
:1037B00002E02B4807FB00F52748406800F4800032
:1037C000B0F5800F01D1A94603E068000321B0FBEA
:1037D000F1F932E02048046A04F44070B0F5807FCB
:1037E00005D104F0020010B14FF4004918E004F4D0
:1037F0004070B0F5007F07D11748406A00F0020022
:1038000010B149F640490BE004F44070B0F5407F38
:1038100006D11148006800F4003008B14FF2244985
:103820000BE000F093F90C494968C1F38131491C60
:103830004900B0FBF1F900E000BF00BF484605B009
:10384000BDE8F08302030405060708090A0B0C0D06
:103850000E0F1010010200000010024000127A004A
:1038600000093D00F8B5044600260025207800F048
:10387000010000286BD000274348C06900F0805049
:1038800070B900BF4048C06940F080503E49C861EF
:103890000846C06900F08050009000BF00BF0127BB
:1038A0003A48006800F48070B0B93848006840F4C5
:1038B000807036490860FEF769FE064606E0FEF7AE
:1038C00065FE801B642801D90320F8BD2F480068DD
:1038D00000F480700028F2D02B48006A00F4407594
:1038E0002DB3A08800F44070A84220D02648006A7A
:1038F00020F4407501202649086000200860224815
:10390000056205F0010090B1FEF740FE064608E0B2
:10391000FEF73CFE801B41F28831884201D903202A
:10392000D3E71948006A00F002000028F0D01648DA
:10393000006A20F440706168084313490862012F4F
:1039400004D10846C06920F08050C86100BF2078CB
:1039500000F00200022807D10B48406820F44040E4
:10396000A168084308494860207800F0100010283A
:1039700007D10548406820F48000E1680843024907
:1039800048600020A1E700000010024000700040E5
:103990004004424270B504460D460CB9012070BD8A
:1039A0005A48006800F00700A8420ED25748006845
:1039B00020F007002843554908600846006800F0D9
:1039C0000700A84201D00120E9E7207800F00200BA
:1039D00002281DD1207800F00400042805D14C48AD
:1039E000406840F4E0604A494860207800F00800F0
:1039F000082805D14648406840F460504449486072
:103A00004348406820F0F000A168084340494860FE
:103A1000207800F0010078B36068012806D13C48A6
:103A2000006800F4003090B90120B8E7606802280F
:103A300006D13748006800F0007040B90120AEE7B9
:103A40003348006800F0020008B90120A7E73048B9
:103A5000406820F00300616808432D494860FEF784
:103A600095FD064609E0FEF791FD801B41F2883185
:103A7000884202D9032092E707E02548406800F019
:103A80000C006168B0EB810FEDD12048006800F0B8
:103A90000700A8420ED91D48006820F007002843FF
:103AA0001A4908600846006800F00700A84201D0E3
:103AB000012074E7207800F00400042807D114489E
:103AC000406820F4E060E1680843114948602078CC
:103AD00000F00800082808D10D48406820F4605024
:103AE000216940EAC1000A49486000F03FF80849EE
:103AF0004968C1F30311074A515CC8400649086090
:103B000006480068FFF76AFD002048E700200240F1
:103B10000010024044B60008000000200800002009
:103B200001480068704700000000002000B5FFF762
:103B3000F7FF04494968C1F30221034A515CC840B8
:103B400000BD00000010024054B6000800B5FFF7A9
:103B5000E7FF04494968C1F3C221034A515CC840E8
:103B600000BD00000010024054B60008F0B585B05A
:103B70000FF26C0C9CE8E01001A8A0E8E0101CA576
:103B80002D68009500210022002300240020194DFB
:103B9000696801F00C05F5B1042D02D0082D19D18A
:103BA00001E0154819E001ADC1F38346AC5D01F4B5
:103BB000803555B10F4D6D68C5F340451DF80520A2
:103BC0000D4D6543B5FBF2F302E00C4D04FB05F32C
:103BD000184602E000BF084800BF00BF05B0F0BDB6
:103BE00002030405060708090A0B0C0D0E0F10103E
:103BF000010200000010024000127A0000093D009E
:103C0000F8B504460CB90120F8BD207800F0010099
:103C1000002878D0F848406800F00C0004280CD048
:103C2000F548406800F00C00082811D1F2484068BF
:103C300000F48030B0F5803F0AD1EF48006800F40E
:103C4000003000285FD0606800285CD10120DBE7ED
:103C500000BF6068B0F5803F06D1E748006840F4D7
:103C60008030E549086028E0606858B9E24800689B
:103C700020F48030E04908600846006820F4802085
:103C800008601AE06068B0F5A02F0BD1DA48006830
:103C900040F48020D84908600846006840F480302D
:103CA00008600AE0D448006820F48030D2490860F7
:103CB0000846006820F48020086000BF606888B172
:103CC000FEF764FC054606E0FEF760FC401B642836
:103CD00001D9032098E7C848006800F400300028A4
:103CE000F2D010E0FEF752FC054606E0FEF74EFC6F
:103CF000401B642801D9032086E7BF48006800F410
:103D000000300028F2D1207800F00200022857D1BC
:103D1000B948406800F00C0050B1B748406800F066
:103D20000C00082818D1B448406800F4803098B9D5
:103D3000B148006800F0020020B12069012801D0DC
:103D4000012061E7AC48006820F0F800616940EAB2
:103D5000C100A949086033E02069E8B10120A74902
:103D60000860FEF713FC054606E0FEF70FFC401B5B
:103D7000022801D9032047E79F48006800F00200AD
:103D80000028F2D09C48006820F0F800616940EA01
:103D9000C1009949086013E0002098490860FEF7C7
:103DA000F5FB054606E0FEF7F1FB401B022801D9B2
:103DB000032029E79048006800F002000028F2D1B3
:103DC000207800F0080008282DD1A069B8B10120A2
:103DD0008B490860FEF7DAFB054606E0FEF7D6FBE6
:103DE000401B022801D903200EE78348406A00F0F7
:103DF00002000028F2D0012003F0E0F813E00020D8
:103E00007F490860FEF7C2FB054606E0FEF7BEFBF1
:103E1000401B022801D90320F6E67748406A00F0EB
:103E200002000028F2D1207800F00400042873D1A9
:103E300000277148C06900F0805070B900BF6E481B
:103E4000C06940F080506C49C8610846C06900F004
:103E50008050009000BF00BF01276A48006800F44E
:103E60008070B0B96748006840F4807065490860A8
:103E7000FEF78CFB054606E0FEF788FB401B642836
:103E800001D90320C0E65F48006800F48070002874
:103E9000F2D000BFE068012806D15748006A40F020
:103EA00001005549086227E0E06858B95248006AA5
:103EB00020F00100504908620846006A20F0040022
:103EC000086219E0E06805280BD14B48006A40F011
:103ED0000400494908620846006A40F0010008628F
:103EE0000AE04548006A20F001004349086208469C
:103EF000006A20F00400086200BFE068A0B1FEF78D
:103F000045FB054609E0FEF741FB401B41F28831C5
:103F1000884202D9032077E622E03748006A00F0A1
:103F200002000028EFD012E0FEF730FB054608E063
:103F3000FEF72CFB401B41F28831884201D9032057
:103F400062E62D48006A00F002000028F0D1012F3F
:103F500005D12948C06920F080502749C86100BFB9
:103F6000E069C8B32448406800F00C00082860D01D
:103F7000E069022848D1002020490866FEF706FBC8
:103F8000054606E0FEF702FB401B022801D903208C
:103F90003AE61948006800F000700028F2D1206A63
:103FA000B0F5803F07D11448406820F40030A16884
:103FB000084311494860D4E9080108430E4949689B
:103FC00021F4741108430C49486001200B4908662C
:103FD000FEF7DCFA054607E03DE0FEF7D7FA401BA6
:103FE000022801D903200FE60348006800F00070A2
:103FF0000028F2D02FE000000010024000004242F2
:104000008004424200700040002014490866FEF718
:10401000BDFA054606E0FEF7B9FA401B022801D9B1
:104020000320F1E50E48006800F000700028F2D18E
:1040300011E0E069012800D1E6E50948466806F488
:104040008031206A814204D106F47011606A814295
:1040500001D00120D8E50020D6E500000000424252
:1040600000100240F8B505460C46164600200090A8
:1040700005B10CB90120F8BD00226946284600F0C0
:104080001AF808B10120F6E7287B2070E87BE07081
:10409000687B6070A87BA0705EB1E07802F0ADFF35
:1040A000E070607802F0A9FF6070A07802F0A5FFD0
:1040B000A0700020DFE72DE9F04780460C469146CE
:1040C00000250026AA460027B8F1000F00D014B939
:1040D0000120BDE8F087D8F800004068C0F38000F8
:1040E00008B10120F5E7404603F04EF805464FF4CD
:1040F0006160B5FBF0F7B5FBF0F100FB11503C211E
:10410000B0FBF1F060704FF46160B5FBF0F100FBC3
:1041100011503C21B0FBF1F201FB1200A070182FEE
:1041200039D31820B7FBF0FAB7FBF0F100FB1170A0
:104130002070404603F01CF80646701C18B1AE42D1
:1041400001D9761B01E04FF0FF360AEB4A00C000B0
:10415000C0EB4011C1EB0020A5EB001529464046FD
:1041600003F085F808B10120B3E7701C38B12E4484
:104170003146404603F064F840B10120A9E73146DA
:10418000404603F05DF808B10120A2E751464046E1
:1041900002F040FF00E02770B9F1000F0BD020784B
:1041A00002F02BFF2070607802F027FF6070A0788B
:1041B00002F023FFA07000208BE7000070B50446DA
:1041C00000250CB9012070BD607C20B9002020744E
:1041D000204600F05BF802206074204600F060F991
:1041E00018B1042060740120EDE7204602F06DFF55
:1041F00018B1042060740120E5E72068406820F0D1
:10420000070021684860A06828B11F48006820F0B6
:1042100001001D4908601C48001F006820F4607000
:10422000A16808431849091F08606068401C08B16C
:10423000656809E00120FFF789FA05461DB90420E9
:1042400060740120BFE76D1E2068806820F00F00B9
:1042500040EA1540216888602068C06865F30F0057
:104260002168C860204602F04DFF18B10420607438
:104270000120A8E70021E17301216173A1730120EE
:10428000607400209FE70000306C004038B50446A1
:104290000B492068884212D1FFF752FA00BF094843
:1042A000C06940F000600749C8610846C06900F075
:1042B0000060009000BF00BF01200349086038BDC6
:1042C00000280040001002403C0442422DE9F04723
:1042D00004460D46904600260027B14604B115B9A4
:1042E0000120BDE8F08700BF207C012801D1022019
:1042F000F7E70120207400BF02206074B8F1000FBE
:1043000006D1E978E17369786173A978A1730BE04C
:10431000E87802F067FEE073687802F063FE60738D
:10432000A87802F05FFEA073A27B617BE07B02F0C5
:1043300045FF2073207B2870204602F025FF0646AB
:104340004FF46160B6FBF0F9B9F1180F2FD91820BE
:10435000B9FBF0F000EB4000C000C0EB4011C1EB36
:104360000020A6EB00163146204602F080FF38B14F
:104370000420607400BF0020207400BF0120B0E75B
:10438000204602F0F5FE0746781C80B1B7420ED2F7
:104390000B4807443946204602F052FF38B104204A
:1043A000607400BF0020207400BF012099E7012045
:1043B000607400BF0020207400BF00BF91E70000C0
:1043C000805101002DE9F04704460D469046002635
:1043D000002704B115B90120BDE8F08700BF207C9B
:1043E000012801D10220F7E70120207400BF02203C
:1043F0006074B8F1000F0BD128784FF46161484325
:104400006978C1EB011100EB8100A978461812E030
:10441000287802F0E7FD4FF4616100FB01F968784C
:1044200002F0E0FDC0EB001009EB8009A87802F073
:10443000D9FD09EB00063146204602F018FF38B1DD
:104440000420607400BF0020207400BF0120C3E777
:104450002068406820F0050021684860204602F08E
:1044600087FE0746781C80B1B7420ED20B4807443E
:104470003946204602F0E4FE38B10420607400BFE3
:104480000020207400BF0120A6E70120607400BF57
:104490000020207400BF00BF9EE700008051010093
:1044A00070B5044600250CB9012070BD2068406835
:1044B00020F0080021684860FEF768F8054607E02C
:1044C000FEF764F8401BB0F57A7F01D90320ECE7D2
:1044D0002068406800F008000028F1D00020E4E7E0
:1044E00070B504462546681EB0F1807F01D30120D7
:1044F0000FE0681E4FF0E02148610F214FF0FF30C0
:1045000003F0C8FA00204FF0E0218861072008611D
:10451000002070BD7047704730B502460B4600BFA3
:1045200092F83C00012801D1022030BD012082F820
:104530003C0000BF022082F83D001068446810680B
:10454000816824F070041868044310684460104DBA
:104550001068A8420BD01068B0F1804F07D00D4D05
:104560001068A84203D00C4D1068A84205D121F074
:1045700080015868014310688160012082F83D0085
:1045800000BF002082F83C0000BF00BFCDE7000064
:10459000002C0140000400400008004010B5044613
:1045A0000CB9012010BD94F83D0028B9002084F812
:1045B0003C00204600F026F8022084F83D00211D32
:1045C000206802F07DFF012084F8460000BF84F8D7
:1045D0003E0001213F200155402001554120015559
:1045E00000BF00BF012084F8420043200155442051
:1045F00001554520015500BF012084F83D000020F1
:10460000D0E7000038B504462068B0F1804F15D1DE
:1046100000BF1448C06940F001001249C861084653
:10462000C06900F00100009000BF00BF032200211C
:104630001C20FFF733F81C20FFF720F80A492068F8
:1046400088420DD100BF0748C06940F0020005490B
:10465000C8610846C06900F00200009000BF00BFBA
:1046600038BD00000010024000040040014691F8EF
:104670003D00012801D001207047022081F83D0053
:104680000868C06840F001000B68D860124B0868E9
:1046900098420BD00868B0F1804F07D00F4B0868E4
:1046A000984203D00E4B086898420CD10868806885
:1046B00000F00702062A0CD00868006840F00100EC
:1046C0000B68186005E00868006840F001000B689E
:1046D00018600020D0E70000002C014000040040DA
:1046E00000080040704710B5044620680069C0F318
:1046F0004000D8B12068C068C0F34000B0B16FF08E
:10470000020021680861012020772068806900F09C
:10471000030018B12046FFF7E5FF05E0204600F052
:10472000ADF8204600F0ABF8002020772068006943
:10473000C0F38000D8B12068C068C0F38000B0B179
:104740006FF00400216808610220207720688069EA
:1047500000F4407018B12046FFF7C4FF05E0204682
:1047600000F08CF8204600F08AF8002020772068BE
:104770000069C0F3C000D8B12068C068C0F3C000B1
:10478000B0B16FF00800216808610420207720682C
:10479000C06900F0030018B12046FFF7A3FF05E051
:1047A000204600F06BF8204600F069F800202077E2
:1047B00020680069C0F30010D8B12068C068C0F359
:1047C0000010B0B16FF01000216808610820207758
:1047D0002068C06900F4407018B12046FFF782FFDE
:1047E00005E0204600F04AF8204600F048F8002096
:1047F00020772068006900F0010058B12068C06887
:1048000000F0010030B16FF001002168086120461E
:1048100000F036F820680069C0F3C01058B1206875
:10482000C068C0F3C01030B16FF08000216808612B
:104830002046FFF76FFE20680069C0F3801058B172
:104840002068C068C0F3801030B16FF0400021686C
:104850000861204600F0B4F820680069C0F34010F9
:1048600058B12068C068C0F3401030B16FF020002C
:10487000216808612046FFF74EFE10BD7047704763
:1048800010B5044626480088401C25490880254864
:104890000068401C2349086023480068401C2249E6
:1048A000086022480078012807D1402004F0B0FABF
:1048B00020211F48FDF75AFE07E0402004F094FA3B
:1048C000002220211A48FDF75BFE1A4800780128D3
:1048D0000CD1144800681849884207D904F0BDFB80
:1048E00016A003F0ABF80020124908700E480068CB
:1048F0001749884209D904F0B0FB10A003F09EF8D4
:104900000020094908600749086005480088022816
:1049100004DD01F0B5FE00200149088010BD000053
:104920003C00002040000020440000201300002034
:10493000000C014048000020905F010074696D6523
:104940002063616C6972656174696F6E0D0A0000A5
:1049500040771B0070B504460D4600BF94F83C003C
:10496000012801D1022070BD012084F83C0000BF65
:10497000022084F83D002946204602F0E6FD48B1B9
:10498000012084F83D0000BF002084F83C0000BFF7
:104990000120E8E72068C06820F040002168C86076
:1049A0002068C06820F480402168C860012084F835
:1049B0003D0000BF002084F83C0000BF00BFD2E7EC
:1049C000704770472DE9F047044620680568206865
:1049D000C668206847694FF00008C14605F00F0817
:1049E000B8F1000F0AD105F0200038B106F0200020
:1049F00020B1204602F0E4FEBDE8F087B8F1000FD8
:104A000071D007F0010018B906F4907000286AD040
:104A100005F0010030B106F4807018B1E06B40F091
:104A20000100E06305F0040030B107F0010018B1A7
:104A3000E06B40F00200E06305F0020030B107F0E7
:104A4000010018B1E06B40F00400E06305F00800DD
:104A500048B106F0200010B907F0010018B1E06B72
:104A600040F00800E063E06B68B305F0200028B177
:104A700006F0200010B1204602F0A2FE2068406936
:104A8000C0F38019E06B00F0080010B9B9F1000F15
:104A900022D0204602F074FE2068406900F04000F9
:104AA000B0B12068406920F0400021684861606B27
:104AB00050B11848616B4863606BFDF7FFF910B1A6
:104AC000606B416B88470CE02046FFF77AFF08E0F7
:104AD0002046FFF776FF04E02046FFF772FF002034
:104AE000E06389E7FFE705F0800030B106F0800061
:104AF00018B1204602F032FF7EE705F0400030B1E9
:104B000006F0400018B1204602F04AFE74E700BFEC
:104B100072E700006D77000810B504460CB901205B
:104B200010BDA06900B100E000BF94F8390028B9B9
:104B3000002084F83800204600F028F8242084F86B
:104B400039002068C06820F400502168C860204601
:104B500002F086FE2068006920F490402168086118
:104B60002068406920F02A00216848612068C068F8
:104B700040F400502168C8600020E063202084F8E1
:104B8000390084F83A000020CAE7000010B586B06A
:104B90000446002002900390049005903B49206851
:104BA000884236D100BF3A48806940F48040384995
:104BB00088610846806900F48040019000BF00BF12
:104BC00000BF0846806940F0080088610846806997
:104BD00000F00800019000BF00BF402002900220BA
:104BE00003900320059002A92A48FDF727FB8020A7
:104BF000029000200390049002A92648FDF71EFBB6
:104C000000BF2549486840F0E06040F0040048607B
:104C100039E022492068884235D100BF1C48C0696C
:104C200040F400301A49C8610846C06900F40030F9
:104C3000019000BF00BF00BF0846806940F004003B
:104C400088610846806900F00400019000BF00BF41
:104C500004200290022003900320059002A910482E
:104C6000FDF7ECFA0820029000200390049002A9BE
:104C70000B48FDF7E3FA022200212620FEF70EFD85
:104C80002620FEF7FBFC06B010BD000000380140F6
:104C900000100240000C01400000014000440040B0
:104CA0000008014010B5034693F83A0020282FD1A0
:104CB00001B10AB9012010BD00BF93F838000128E6
:104CC00001D10220F7E7012083F8380000BF996284
:104CD0009A85DA850020D863222083F83A0000BF45
:104CE000002083F8380000BF1868C06840F4807066
:104CF0001C68E0601868406940F001001C68606151
:104D00001868C06840F020001C68E0600020D2E70E
:104D10000220D0E710B50446084920680968884297
:104D200003D10749087805F0D5F900BF01220449ED
:104D30000248FFF7B7FF0028F8D110BDE8100020A7
:104D4000140000202DE9F84F04460E4617469946F8
:104D50004FF0000A94F8390020285AD106B117B94B
:104D60000120BDE8F88F00BF94F83800012801D178
:104D70000220F6E7012084F8380000BF0020E0633D
:104D8000212084F83900FDF701FC8246A784E784DE
:104D9000A068B0F5805F04D1206910B90025B04645
:104DA00002E035464FF0000800BF002084F83800CC
:104DB00000BF1BE05346002280212046CDF8009022
:104DC00002F0FCFD08B10320CBE745B9B8F80000BC
:104DD000C0F308002168486008F1020803E0287861
:104DE000216848606D1CE08C401EE084E08C002847
:104DF000E0D15346002240212046CDF8009002F039
:104E0000DDFD08B10320ACE7202084F83900002044
:104E1000A7E70220A5E7704709E0802003F0F8FF2C
:104E2000402003F0F5FF4FF4FA70FDF7F3F9F4E7D3
:104E300010B50248FDF7B2FB10BD00007C15002044
:104E400010B50248FDF71AFC10BD00007C150020CB
:104E5000C16AB1F52A0F02D10121C16205E0C16A20
:104E6000B1F12A4F01D10821C1627047F8B505465A
:104E7000002000906C6A94F83D6039480068192160
:104E8000B0FBF1F04FF47A71B0FBF1F0C0EBC00071
:104E900000EB8000009000BF009820B9206C40F02B
:104EA0002000206409E00098401E009020680068FF
:104EB00000F40070B0F5007FEED000BF606B10B161
:104EC0000020616B8862A06B10B10020A16B88622A
:104ED0002068006820F480602168086000206085F8
:104EE000606B10B10020616B4863A06B10B10020B3
:104EF000A16B48632068006820F001002168086009
:104F000094F83D0060280AD1202084F83D0000205C
:104F100084F83E0020642046FDF73EFB1EE006F0CC
:104F20002800282811D12068006840F0010021687D
:104F300008602068006840F48060216808600020F4
:104F40002063282084F83D0005E0202084F83D00FF
:104F5000002084F83E002046FDF77AFCF8BD0000F2
:104F60000000002070B505466C6A606B10B100202F
:104F7000616B8862A06B10B10020A16B8862206811
:104F8000006820F48060216808600020608520208F
:104F900084F83D00002084F83E00206C40F01000B2
:104FA00020642046FDF754FC70BD2DE9F041074612
:104FB0007C6A94F83D5094F83E80E66A2068406828
:104FC00020F4407021684860606B10B10020616B74
:104FD0008862A06B10B10020A16B886205F02100EF
:104FE000212806D005F02200222826D1B8F1200F72
:104FF00023D12068406820F40060216848600020C8
:105000006085292D08D121202063282084F83D00C7
:105010002046FEF7C2FA09E02A2D07D1222020639C
:10502000282084F83D002046FEF7B6FA2068406844
:1050300040F44070216848604DE094F83E0000283C
:1050400049D0608D012805D12068006820F4806077
:10505000216808602068406820F44070216848603A
:1050600016F5803F06D0082E04D0B6F12A4F01D0A5
:10507000202E05D12068006840F400702168086087
:105080002068406820F480502168486020684068AB
:1050900020F400602168486000206085206C18B111
:1050A0002046FDF7D5FB16E0202084F83D0094F85B
:1050B0003E00402807D1002084F83E0020632046AF
:1050C000FDF74CFE07E0002084F83E00122020632C
:1050D0002046FDF788FDBDE8F0810000FEB50446DE
:1050E0000D46164600274FF47A7001232A46A02168
:1050F000CDE9004602900348FDF738FE07463846E2
:10510000FEBD000028150020FEB504460D46002611
:10511000642001210B462A46CDE900410290A021DE
:105120000D48FDF7D5FF064600BF0B48FDF791FB84
:105130002028FAD100BF4FF496731A46A0210648E2
:10514000FDF774FC0328F6D000BF0348FDF781FB90
:105150002028FAD13046FEBD28150020FEB50446B1
:105160000D4616460027642001232A46A021CDE9DA
:10517000004602900D48FDF7ABFF074600BF0B4805
:10518000FDF767FB2028FAD100BF4FF496731A464B
:10519000A0210648FDF74AFC0328F6D000BF0348CB
:1051A000FDF757FB2028FAD13846FEBD2815002010
:1051B0002DE9F041044694F83D6094F83E70102FBC
:1051C00001D0402F07D1222E05D12068006820F49D
:1051D00000602168086006F02800282805D100201A
:1051E0002063282084F83D0010E02068406800F427
:1051F0000060B0F5006F07D0602E05D0202084F845
:105200003D00002084F83E000020206320684068B4
:1052100000F40060B0F5006F40D12068406820F4D1
:10522000006021684860606B90F82100012814D06C
:105230004848616B4863606BFCF740FE00285BD018
:105240002068006820F0010021680860202084F8B0
:105250003D00606B416B88474EE03E48A16B486360
:10526000A06BFCF72BFE002846D020684069C0F3F5
:10527000801030B120680069616A0870606A401C63
:1052800060622068006820F001002168086020202A
:1052900084F83D00A06B416B88472DE094F83D00F9
:1052A00060281AD1202084F83D0000202064206866
:1052B0004069C0F3801030B120680069616A0870ED
:1052C000606A401C60622068006820F0010021686C
:1052D00008602046FDF760F90EE020684069C0F3E1
:1052E000801030B120680069616A0870606A401CF3
:1052F00060622046FDF7ACFA256C05F0010058B954
:1053000005F00200022807D005F00400042803D0AD
:1053100005F00800082805D12068406820F4E06006
:105320002168486094F83D60206C00F00400042877
:105330000ED1282E0CD10848E062002020632020E6
:1053400084F83D00002084F83E002046FDF74AFC2A
:10535000BDE8F0816D4E00080000FFFF01460868BF
:105360004069C0F38020B0B16FF480600A6850617A
:1053700000200863202081F83D00002081F83E00D5
:10538000086C40F00400086400BF002081F83C0075
:1053900000BF012070470020FCE770B50446E56AB5
:1053A000608D042810D12068406820F48060216856
:1053B000486020680069616A0870606A401C606229
:1053C000608D401E60857AE0608D03281AD12068C8
:1053D000406820F4806021684860042D07D0022DC9
:1053E00005D02068006820F480602168086020688B
:1053F0000069616A0870606A401C6062608D401ECE
:1054000060855CE0608D02284FD1012D01D0102D08
:1054100006D12068006820F480602168086012E0EE
:10542000042D01D0022D06D12068006840F4806070
:105430002168086007E0102D05D02068006840F45E
:1054400000702168086020680069616A0870606AFD
:10545000401C6062608D401E608520680069616A42
:105460000870606A401C6062608D401E6085206824
:10547000406820F4407021684860202084F83D0096
:1054800094F83E00402807D1002084F83E002063B5
:105490002046FDF763FC12E0002084F83E00122055
:1054A00020632046FDF79FFB09E020680069616AE0
:1054B0000870606A401C6062608D401E608570BD2F
:1054C00070B5044694F83D00222869D1658D032DFE
:1054D00013D920680069616A0870606A401C6062C4
:1054E000608D401E6085608D032858D1206840681B
:1054F00020F480602168486051E0E06A02284ED0C4
:10550000012D01D0002D4AD1204600F03BFF68BBA1
:105510002068006820F48060216808602068406886
:1055200020F4E0602168486020680069616A0870C2
:10553000606A401C6062608D401E6085202084F897
:105540003D0094F83E00402807D1002084F83E003A
:1055500020632046FDF702FC21E0002084F83E0095
:10556000122020632046FDF73EFB18E020684068CB
:1055700020F4E0602168486020680069616A087072
:10558000606A401C6062608D401E6085202084F847
:105590003D00002084F83E002046FDF759F900BF89
:1055A00070BD00002DE9F84304460D4617469846A5
:1055B000E66A082E04D0012E02D016F5803F06D1EF
:1055C0002068006840F480702168086008E0206B63
:1055D000122805D12068006840F4807021680860B6
:1055E0003B4600224FF001112046CDF8008000F02C
:1055F000E3FD60B12068006800F48070B0F5807F42
:1056000002D14FF4007020640320BDE8F8832069C4
:10561000B0F5804F04D105F0FE002168086112E06A
:1056200005F44070F02141EAE0102168086143462A
:105630003A460B49204600F002FE08B10120E4E79B
:10564000E8B22168086143463A460549891F204669
:1056500000F0F5FD08B10120D7E70020D5E70000F4
:105660000800010070B50446E56A94F83D00212861
:105670003CD1608D50B1606A007821680861606A31
:10568000401C6062608D401E60852FE0082D16D0A2
:10569000202D14D015F5803F11D02068406820F4EB
:1056A000E0602168486011202063002084F83E00FB
:1056B000202084F83D002046FDF796FA16E0206889
:1056C000406820F4E060216848602068006840F489
:1056D00000702168086000202063202084F83D00CD
:1056E000002084F83E002046FDF77EFA70BD2DE9CB
:1056F000F041044694F83D5094F83E70E66A208DDF
:10570000B0BB212D3CD1082E16D0202E14D016F57A
:10571000803F11D02068406820F4E0602168486034
:1057200011202063002084F83E00202084F83D00F2
:105730002046FDF759FA44E02068406820F4E06014
:10574000216848602068006840F4007021680860A3
:1057500000202063202084F83D0094F83E0040287B
:1057600007D1002084F83E002046FDF7F9FA28E032
:1057700006E0002084F83E002046FDF735FA20E0E0
:10578000212D03D0402F1CD1222D1AD1608D30B98C
:105790002068406820F480602168486011E094F837
:1057A0003E00402803D1204600F0B1F909E0606ACC
:1057B000007821680861606A401C6062608D401E4C
:1057C0006085BDE8F081416CC9B202681161416B2E
:1057D00009B9816B59B1416B896A11B9816B896AC9
:1057E00029B10168496841F400610268516070475D
:1057F00038B590F83E20C16A036B90F83D40222CEA
:1058000073D1046D64B9402A0AD100BF002400940A
:105810000468646900940468A469009400BF26E1E8
:10582000046DC4B90469B4F5404F14D100BF00241D
:1058300000940468646900940468A469009400BF3B
:1058400000BF0468246844F4807405682C60046D0B
:10585000641C04650BE1448D8CB900BF00240094E6
:105860000468646900940468A469009400BF00BFE0
:105870000468246844F4007405682C60E9E0448DF1
:10588000012C72D111F5803F30D10468246824F4D2
:10589000806405682C600468646804F40064B4F5EE
:1058A000006F10D10468246824F4806405682C60BB
:1058B00000BF002400940468646900940468A4692B
:1058C000009400BFC5E000BF002400940468646930
:1058D00000940468A469009400BF00BF04682468B1
:1058E00044F4007405682C60B3E0B5E0082923D0C7
:1058F000202921D0122B01D101291DD104290AD040
:10590000022908D0102906D00468246824F4806491
:1059100005682C6005E00468246844F48064056828
:105920002C6000BF0024009404686469009404683B
:10593000A469009400BF8CE00468246824F48064A7
:1059400005682C6000BF002400940468646900941A
:105950000468A469009400BF00BF0468246844F48C
:10596000007405682C6074E0FFE7448D022C47D179
:1059700004291BD0022919D0102917D004682468E3
:1059800044F4006405682C6000BF0024009404689F
:10599000646900940468A469009400BF00BF0468AF
:1059A000246824F4806405682C6010E0046824688E
:1059B00044F4806405682C6000BF002400940468EF
:1059C000646900940468A469009400BF00BF04687F
:1059D000646804F40064B4F5006F3AD111F5803FB7
:1059E00007D0012905D0082903D0102901D020298A
:1059F0002FD10468646844F4805405686C6028E022
:105A00000468246844F4806405682C600468646851
:105A100004F40064B4F5006F10D111F5803F07D095
:105A2000012905D0082903D0102901D0202905D14A
:105A30000468646844F4805405686C6000BF002406
:105A400000940468646900940468A469009400BF29
:105A500000BF002404650AE000BF0024009404682D
:105A6000646900940468A469009400BF00BF38BD55
:105A700090F83E1040290ED1016D29B9416C01F01A
:105A8000FE010268116141E0416CC9B241F00101BF
:105A9000026811613AE00169B1F5804F20D190F8B8
:105AA0003D10212905D1416C01F0FE010268116110
:105AB00005E0416CC9B241F0010102681161416B1E
:105AC00011B1416B896A21B9816BF9B1816B896A26
:105AD000E1B10168496841F400610268516015E074
